:100000000C942A000C943F000C943F000C943F0089
:100010000C943F000C943F000C943F000C943F0064
:100020000C943F000C943F000C943F000C943F0054
:100030000C943F000C943F000C943F000C943F0044
:100040000C943F000C943F000C943F000C943F0034
:100050000C943F0011241FBECFE5D8E0DEBFCDBF1A
:1000600010E0A0E6B0E0EEEAFAE002C005900D92E2
:10007000AC3BB107D9F70E940A030C9455050C94C8
:100080000000EF92FF920F931F93CF93DF93E82E20
:1000900040E061E082E00E94330441E062E082E0FF
:1000A0000E943304C4E0D0E0F12C8701A7010C2E9C
:1000B00002C0559547950A94E2F741706C2F82E093
:1000C0000E9433042196C830D10579F741E060E001
:1000D00082E00E94330462E070E080E090E00E94E1
:1000E000560240E060E082E00E943304C4E0E12C6C
:1000F000F12CA8010E2C02C0559547950A94E2F701
:1001000041706C2F82E00E9433048FEFE81AF80AE6
:10011000CF5FC83071F741E060E082E00E943304B5
:1001200062E070E080E090E00E94560240E060E013
:1001300082E00E943304DF91CF911F910F91FF90D5
:10014000EF900895EF92FF920F931F93CF93DF9359
:10015000E82E40E061E082E00E94330440E062E08B
:1001600082E00E943304C4E0D0E0F12C8701A701B3
:100170000C2E02C0559547950A94E2F741706C2FFA
:1001800082E00E9433042196C830D10579F741E01E
:1001900060E082E00E94330462E070E080E090E082
:1001A0000E94560240E060E082E00E943304C4E016
:1001B000E12CF12CA8010E2C02C0559547950A940C
:1001C000E2F741706C2F82E00E9433048FEFE81A4F
:1001D000F80ACF5FC83071F741E060E082E00E942A
:1001E000330462E070E080E090E00E94560240E05C
:1001F00060E082E00E943304DF91CF911F910F9164
:10020000FF90EF900895EF92FF920F931F93CF937B
:10021000DF9341E062E082E00E94AB0341E061E0F5
:1002200082E00E94AB0341E060E082E00E94AB0309
:1002300061E082E00E948F0362E370E080E090E082
:100240000E945602809160008B7F886080936000DE
:1002500082E20E94A200809160000E94A20061E000
:1002600070E080E090E00E945602809161000E9460
:10027000A20061E070E080E090E00E94560281E020
:100280000E94A20062E070E080E090E00E945602CE
:1002900086E00E94A20062E070E080E090E00E94B0
:1002A000560280E40E94A200C2E6D0E00F2EF2EADD
:1002B000EF2EF0E0FF2EF02D0AC089910E94410040
:1002C000C017D107D1F7E801E016F10621F08E0141
:1002D000085F1F4FF2CF80E80E94A200DF91CF910C
:1002E0001F910F91FF90EF900895813019F08230A7
:1002F00031F008958FE7860F0E94A20008958FEBDA
:10030000860F0E94A20008958A3020F4805D0E942A
:10031000410008950E9441000895BF92CF92DF925C
:10032000EF92FF920F931F93CF93DF93CDB7DEB77A
:1003300029970FB6F894DEBF0FBECDBF8C0119828E
:100340001A821B821C821D821E821F8218861986B9
:10035000611165C0FC0180819181A281B3818A8392
:100360009B83AC83BD838A819B81AC81BD81892BBA
:100370008A2B8B2B21F489810E94840163C000E0C9
:100380000F2EF9E0BF2EF02DCA80DB80EC80FD80BF
:100390001B2D101B612F8AE00E949B029B01AC0168
:1003A000C701B6010E94C704232B242B252B91F1F2
:1003B0000A3008F047C0CA80DB80EC80FD80612FE6
:1003C0008AE00E949B029B01AC01C701B6010E941A
:1003D000C7046E837F8388879987CA80DB80EC801F
:1003E000FD80612F8AE00E949B029B01AC01C70146
:1003F000B6010E94C70429838E819F81A885B98593
:100400008A839B83AC83BD8389810E9484011150C0
:1004100090F618C00F5F0A3009F0B6CF13C06130F4
:1004200089F4FC018081882369F07801FFEFEF1ADD
:10043000FF0AF80180810E948401F801818187010F
:100440008111F3CF29960FB6F894DEBF0FBECDBF52
:10045000DF91CF911F910F91FF90EF90DF90CF90A0
:10046000BF900895811106C0809161008D7F8093B7
:10047000610005C08091610082608093610080917D
:1004800061000E94A2000895811106C08091610060
:100490008E7F8093610005C08091610081608093B0
:1004A0006100809161000E94A20008958F929F9246
:1004B000AF92BF92CF92DF92EF92FF920F939B0188
:1004C000AC0160EA76E881E090E00E94B7046656ED
:1004D00079408109910929EB35E749E757E00E9406
:1004E000030500E20E943005822E932EA42EB52E25
:1004F000B694A79497948794B694A7949794879466
:1005000081149104A104B10461F080E090E0DC0169
:1005100000000196A11DB11D88169906AA06BB060A
:10052000B9F70F91FF90EF90DF90CF90BF90AF9011
:100530009F908F900895CF92DF92EF92FF92C82EF6
:10054000F62F662391F0E0E061E070E080E090E05B
:10055000D12CE12CF12C9B01AC01C701B6010E940A
:10056000B704EF5FFE13F7CF04C061E070E080E0F6
:1005700090E0FF90EF90DF90CF90089516B887E05D
:1005800086B9379A3598339817B880E487B93D987B
:100590000895CF93DF9300D000D000D0CDB7DEB761
:1005A0001A8219821B821C821D821E8297B1987F3B
:1005B00097B997B1892B87B9369A3699FECF24B16E
:1005C00085B190E0982F8827820F911D9A838983A7
:1005D00029813A81A8E8B3E10E94E904DC01CB015A
:1005E000072E7AE0B695A795979587957A95D1F7D6
:1005F000702D8B839C83AD83BE836B817C818D81C9
:100600009E8126960FB6F894DEBF0FBECDBFDF9158
:10061000CF910895CF93DF93CDB7DEB728970FB66C
:10062000F894DEBF0FBECDBF19821A821B821C82D6
:100630001D821E821F82188640E060E081E00E94D9
:10064000AB0340E061E081E00E94AB030E94BE0288
:100650000E94030180E00E94320280E00E94440276
:1006600061E082EA90E00E948D0161E082E00E94F8
:10067000750161E088EA90E00E948D0180E00E94AF
:10068000C90269837A838B839C8367E081E00E943F
:10069000750161E08EEA90E00E948D0167E081E0E3
:1006A0000E94750160E0CE0101960E948D016CE010
:1006B00081E00E94750161E089EB90E00E948D016C
:1006C00061E070E080E090E00E94560281E00E94CC
:1006D000C9026D837E838F83988767E082E00E94E2
:1006E000750161E08EEA90E00E948D0167E082E092
:1006F0000E94750160E0CE0105960E948D016CE0BC
:1007000082E00E94750161E089EB90E00E948D011A
:1007100061E070E080E090E00E945602AFCF61306F
:1007200009F46FEF823061F018F4813031F011C0BC
:10073000833049F0843051F00CC06ABB80E00895EA
:1007400067BB80E0089564BB80E0089561BB80E0F2
:10075000089581E00895683008F07FC0423008F0C5
:100760007EC0823031F118F4813039F07AC08330A4
:10077000E1F1843009F455C074C041110DC09AB341
:1007800021E030E002C0220F331F6A95E2F7822F8A
:10079000809589238ABB0AC02AB381E090E002C019
:1007A000880F991F6A95E2F7822B8ABB8ABB80E08B
:1007B000089541110DC097B321E030E002C0220F2F
:1007C000331F6A95E2F7822F8095892387BB0AC081
:1007D00027B381E090E002C0880F991F6A95E2F785
:1007E000822B87BB87BB80E0089541110DC094B375
:1007F00021E030E002C0220F331F6A95E2F7822F1A
:100800008095892384BB0AC024B381E090E002C0B4
:10081000880F991F6A95E2F7822B84BB84BB80E026
:10082000089541110DC091B321E030E002C0220FC4
:10083000331F6A95E2F7822F8095892381BB0AC016
:1008400021B381E090E002C0880F991F6A95E2F71A
:10085000822B81BB81BB80E0089582E0089583E014
:10086000089581E00895683008F07BC0423008F0B8
:100870007AC0823029F118F4813039F076C08330A3
:10088000D1F1843009F452C070C041110DC02BB3B6
:1008900081E090E002C0880F991F6A95E2F7809589
:1008A00082238BBB80E008952BB381E090E002C0EF
:1008B000880F991F6A95E2F7822B8BBB80E0089521
:1008C00041110DC028B381E090E002C0880F991F4C
:1008D0006A95E2F78095822388BB80E0089528B36B
:1008E00081E090E002C0880F991F6A95E2F7822BA1
:1008F00088BB80E0089541110DC025B381E090E0F0
:1009000002C0880F991F6A95E2F78095822385BB04
:1009100080E0089525B381E090E002C0880F991F20
:100920006A95E2F7822B85BB80E0089541110DC0E6
:1009300022B381E090E002C0880F991F6A95E2F728
:100940008095822382BB80E0089522B381E090E00D
:1009500002C0880F991F6A95E2F7822B82BB80E064
:10096000089582E0089583E0089581E00895DB0111
:100970008F939F930E94F804BF91AF91A29F800D27
:10098000911DA39F900DB29F900D11240895A1E297
:100990001A2EAA1BBB1BFD010DC0AA1FBB1FEE1FF9
:1009A000FF1FA217B307E407F50720F0A21BB30B44
:1009B000E40BF50B661F771F881F991F1A9469F7C0
:1009C00060957095809590959B01AC01BD01CF011C
:1009D0000895A29FB001B39FC001A39F700D811D18
:1009E0001124911DB29F700D811D1124911D089538
:1009F0000E94E904A59F900DB49F900DA49F800DC7
:100A0000911D11240895E894DF93CF93FC01DB013D
:100A10000E94E9047F936F93E9019A01AC01BF93AF
:100A2000AF933F932F93DF010E94E90426F46C1BE0
:100A30007D0B820B930B9E01EB01FC010E944C0588
:100A4000AF91BF912F913F910E944C05BE01CF0104
:100A5000F9012F913F91CF91DF91089597FB10F805
:100A6000169400080F93083098F00850232F342F65
:100A7000452F562F672F782F892F902DF4CF05946F
:100A800097958795779567955795479537952795C6
:100A90000A95AAF70F9108950E94E904460F571F7F
:0E0AA000C81FD91F08F431960895F894FFCFAF
:100AAE00280F000A1F1F0E040000040E1515040463
:100ABE0000000E1F1F1F000E000000040E1F0E046C
:100ACE000000040E1F1B11000000111B0E040E1B54
:100ADE0011001F15151F15151F000E1D191F0E00D5
:100AEE001F00414443303A00414443313A00202034
:0C0AFE002020202020202020006D760009
:00000001FF
